{
  "contractName": "ClinicalTrialContract",
  "abi": [
    {
      "inputs": [
        {
          "internalType": "uint256",
          "name": "",
          "type": "uint256"
        }
      ],
      "name": "clinicalTrials",
      "outputs": [
        {
          "internalType": "uint256",
          "name": "id",
          "type": "uint256"
        },
        {
          "internalType": "string",
          "name": "manufacturerName",
          "type": "string"
        },
        {
          "internalType": "string",
          "name": "drugName",
          "type": "string"
        },
        {
          "internalType": "string",
          "name": "composition",
          "type": "string"
        },
        {
          "internalType": "string",
          "name": "targetedMedicalCondition",
          "type": "string"
        }
      ],
      "stateMutability": "view",
      "type": "function"
    },
    {
      "inputs": [],
      "name": "count",
      "outputs": [
        {
          "internalType": "uint256",
          "name": "",
          "type": "uint256"
        }
      ],
      "stateMutability": "view",
      "type": "function"
    },
    {
      "inputs": [
        {
          "internalType": "string",
          "name": "_manufacturerName",
          "type": "string"
        },
        {
          "internalType": "string",
          "name": "_drugName",
          "type": "string"
        },
        {
          "internalType": "string",
          "name": "_composition",
          "type": "string"
        },
        {
          "internalType": "string",
          "name": "_targetedMedicalCondition",
          "type": "string"
        }
      ],
      "name": "createClinicalTrial",
      "outputs": [],
      "stateMutability": "nonpayable",
      "type": "function"
    }
  ],
  "bytecode": "0x60806040526000805534801561001457600080fd5b50610b06806100246000396000f3fe608060405234801561001057600080fd5b50600436106100415760003560e01c806306661abd146100465780633dbe8d54146100645780634b93402b14610098575b600080fd5b61004e6100b4565b60405161005b91906103e8565b60405180910390f35b61007e60048036038101906100799190610443565b6100ba565b60405161008f959493929190610500565b60405180910390f35b6100b260048036038101906100ad91906106a4565b610310565b005b60005481565b60016020528060005260406000206000915090508060000154908060010180546100e3906107aa565b80601f016020809104026020016040519081016040528092919081815260200182805461010f906107aa565b801561015c5780601f106101315761010080835404028352916020019161015c565b820191906000526020600020905b81548152906001019060200180831161013f57829003601f168201915b505050505090806002018054610171906107aa565b80601f016020809104026020016040519081016040528092919081815260200182805461019d906107aa565b80156101ea5780601f106101bf576101008083540402835291602001916101ea565b820191906000526020600020905b8154815290600101906020018083116101cd57829003601f168201915b5050505050908060030180546101ff906107aa565b80601f016020809104026020016040519081016040528092919081815260200182805461022b906107aa565b80156102785780601f1061024d57610100808354040283529160200191610278565b820191906000526020600020905b81548152906001019060200180831161025b57829003601f168201915b50505050509080600401805461028d906107aa565b80601f01602080910402602001604051908101604052809291908181526020018280546102b9906107aa565b80156103065780601f106102db57610100808354040283529160200191610306565b820191906000526020600020905b8154815290600101906020018083116102e957829003601f168201915b5050505050905085565b6000808154809291906103229061080a565b91905055506040518060a00160405280600054815260200185815260200184815260200183815260200182815250600160008054815260200190815260200160002060008201518160000155602082015181600101908161038391906109fe565b50604082015181600201908161039991906109fe565b5060608201518160030190816103af91906109fe565b5060808201518160040190816103c591906109fe565b5090505050505050565b6000819050919050565b6103e2816103cf565b82525050565b60006020820190506103fd60008301846103d9565b92915050565b6000604051905090565b600080fd5b600080fd5b610420816103cf565b811461042b57600080fd5b50565b60008135905061043d81610417565b92915050565b6000602082840312156104595761045861040d565b5b60006104678482850161042e565b91505092915050565b600081519050919050565b600082825260208201905092915050565b60005b838110156104aa57808201518184015260208101905061048f565b60008484015250505050565b6000601f19601f8301169050919050565b60006104d282610470565b6104dc818561047b565b93506104ec81856020860161048c565b6104f5816104b6565b840191505092915050565b600060a08201905061051560008301886103d9565b818103602083015261052781876104c7565b9050818103604083015261053b81866104c7565b9050818103606083015261054f81856104c7565b9050818103608083015261056381846104c7565b90509695505050505050565b600080fd5b600080fd5b7f4e487b7100000000000000000000000000000000000000000000000000000000600052604160045260246000fd5b6105b1826104b6565b810181811067ffffffffffffffff821117156105d0576105cf610579565b5b80604052505050565b60006105e3610403565b90506105ef82826105a8565b919050565b600067ffffffffffffffff82111561060f5761060e610579565b5b610618826104b6565b9050602081019050919050565b82818337600083830152505050565b6000610647610642846105f4565b6105d9565b90508281526020810184848401111561066357610662610574565b5b61066e848285610625565b509392505050565b600082601f83011261068b5761068a61056f565b5b813561069b848260208601610634565b91505092915050565b600080600080608085870312156106be576106bd61040d565b5b600085013567ffffffffffffffff8111156106dc576106db610412565b5b6106e887828801610676565b945050602085013567ffffffffffffffff81111561070957610708610412565b5b61071587828801610676565b935050604085013567ffffffffffffffff81111561073657610735610412565b5b61074287828801610676565b925050606085013567ffffffffffffffff81111561076357610762610412565b5b61076f87828801610676565b91505092959194509250565b7f4e487b7100000000000000000000000000000000000000000000000000000000600052602260045260246000fd5b600060028204905060018216806107c257607f821691505b6020821081036107d5576107d461077b565b5b50919050565b7f4e487b7100000000000000000000000000000000000000000000000000000000600052601160045260246000fd5b6000610815826103cf565b91507fffffffffffffffffffffffffffffffffffffffffffffffffffffffffffffffff8203610847576108466107db565b5b600182019050919050565b60008190508160005260206000209050919050565b60006020601f8301049050919050565b600082821b905092915050565b6000600883026108b47fffffffffffffffffffffffffffffffffffffffffffffffffffffffffffffffff82610877565b6108be8683610877565b95508019841693508086168417925050509392505050565b6000819050919050565b60006108fb6108f66108f1846103cf565b6108d6565b6103cf565b9050919050565b6000819050919050565b610915836108e0565b61092961092182610902565b848454610884565b825550505050565b600090565b61093e610931565b61094981848461090c565b505050565b5b8181101561096d57610962600082610936565b60018101905061094f565b5050565b601f8211156109b25761098381610852565b61098c84610867565b8101602085101561099b578190505b6109af6109a785610867565b83018261094e565b50505b505050565b600082821c905092915050565b60006109d5600019846008026109b7565b1980831691505092915050565b60006109ee83836109c4565b9150826002028217905092915050565b610a0782610470565b67ffffffffffffffff811115610a2057610a1f610579565b5b610a2a82546107aa565b610a35828285610971565b600060209050601f831160018114610a685760008415610a56578287015190505b610a6085826109e2565b865550610ac8565b601f198416610a7686610852565b60005b82811015610a9e57848901518255600182019150602085019450602081019050610a79565b86831015610abb5784890151610ab7601f8916826109c4565b8355505b6001600288020188555050505b50505050505056fea2646970667358221220bea6fbdb70da6ba0d398e16e2e0c9b0e1eaa0174e604cc183804273746b2ff4c64736f6c63430008130033",
  "immutableReferences": {},
  "source": "// SPDX-License-Identifier: MIT \r\npragma solidity ^0.8.10;\r\n\r\ncontract ClinicalTrialContract {\r\n  uint256 public count = 0;\r\n\r\n  struct ClinicalTrialData {\r\n    uint256 id;\r\n    string manufacturerName;\r\n    string drugName;\r\n    string composition;\r\n    string targetedMedicalCondition;\r\n  }\r\n\r\n  mapping(uint256 => ClinicalTrialData) public clinicalTrials;\r\n\r\n  function createClinicalTrial(\r\n    string memory _manufacturerName,\r\n    string memory _drugName,\r\n    string memory _composition,\r\n    string memory _targetedMedicalCondition\r\n  ) public {\r\n    count++;\r\n    clinicalTrials[count] = ClinicalTrialData(\r\n      count,\r\n      _manufacturerName,\r\n      _drugName,\r\n      _composition,\r\n      _targetedMedicalCondition\r\n    );\r\n  }\r\n}\r\n",
  "sourcePath": "C:\\Users\\Dhanush\\Desktop\\Drug Traceability Src\\BlockChain\\contracts\\Contacts.sol",
  "compiler": {
    "name": "solc",
    "version": "0.8.19+commit.7dd6d404.Emscripten.clang"
  },
  "schemaVersion": "3.4.13",
  "updatedAt": "2023-06-04T16:03:34.444Z",
  "devdoc": {
    "kind": "dev",
    "methods": {},
    "version": 1
  },
  "userdoc": {
    "kind": "user",
    "methods": {},
    "version": 1
  }
}