{
  "contractName": "Contacts",
  "abi": [
    {
      "inputs": [],
      "stateMutability": "nonpayable",
      "type": "constructor"
    },
    {
      "inputs": [
        {
          "internalType": "uint256",
          "name": "",
          "type": "uint256"
        }
      ],
      "name": "contacts",
      "outputs": [
        {
          "internalType": "uint256",
          "name": "id",
          "type": "uint256"
        },
        {
          "internalType": "string",
          "name": "Manufacturename",
          "type": "string"
        },
        {
          "internalType": "string",
          "name": "Drugname",
          "type": "string"
        },
        {
          "internalType": "string",
          "name": "Composition",
          "type": "string"
        },
        {
          "internalType": "string",
          "name": "Targetedmedicalcondition",
          "type": "string"
        }
      ],
      "stateMutability": "view",
      "type": "function",
      "constant": true
    },
    {
      "inputs": [],
      "name": "count",
      "outputs": [
        {
          "internalType": "uint256",
          "name": "",
          "type": "uint256"
        }
      ],
      "stateMutability": "view",
      "type": "function",
      "constant": true
    },
    {
      "inputs": [
        {
          "internalType": "string",
          "name": "_mname",
          "type": "string"
        },
        {
          "internalType": "string",
          "name": "_dname",
          "type": "string"
        },
        {
          "internalType": "string",
          "name": "_comp",
          "type": "string"
        },
        {
          "internalType": "string",
          "name": "_target",
          "type": "string"
        }
      ],
      "name": "createContact",
      "outputs": [],
      "stateMutability": "nonpayable",
      "type": "function"
    }
  ],
  "bytecode": "0x60806040526000805534801561001457600080fd5b50610b06806100246000396000f3fe608060405234801561001057600080fd5b50600436106100415760003560e01c806306661abd14610046578063ce88fd0414610064578063e0f478cb14610080575b600080fd5b61004e6100b4565b60405161005b91906103e8565b60405180910390f35b61007e6004803603810190610079919061055d565b6100ba565b005b61009a60048036038101906100959190610660565b610179565b6040516100ab95949392919061070c565b60405180910390f35b60005481565b6000808154809291906100cc906107aa565b91905055506040518060a00160405280600054815260200185815260200184815260200183815260200182815250600160008054815260200190815260200160002060008201518160000155602082015181600101908161012d91906109fe565b50604082015181600201908161014391906109fe565b50606082015181600301908161015991906109fe565b50608082015181600401908161016f91906109fe565b5090505050505050565b60016020528060005260406000206000915090508060000154908060010180546101a290610821565b80601f01602080910402602001604051908101604052809291908181526020018280546101ce90610821565b801561021b5780601f106101f05761010080835404028352916020019161021b565b820191906000526020600020905b8154815290600101906020018083116101fe57829003601f168201915b50505050509080600201805461023090610821565b80601f016020809104026020016040519081016040528092919081815260200182805461025c90610821565b80156102a95780601f1061027e576101008083540402835291602001916102a9565b820191906000526020600020905b81548152906001019060200180831161028c57829003601f168201915b5050505050908060030180546102be90610821565b80601f01602080910402602001604051908101604052809291908181526020018280546102ea90610821565b80156103375780601f1061030c57610100808354040283529160200191610337565b820191906000526020600020905b81548152906001019060200180831161031a57829003601f168201915b50505050509080600401805461034c90610821565b80601f016020809104026020016040519081016040528092919081815260200182805461037890610821565b80156103c55780601f1061039a576101008083540402835291602001916103c5565b820191906000526020600020905b8154815290600101906020018083116103a857829003601f168201915b5050505050905085565b6000819050919050565b6103e2816103cf565b82525050565b60006020820190506103fd60008301846103d9565b92915050565b6000604051905090565b600080fd5b600080fd5b600080fd5b600080fd5b6000601f19601f8301169050919050565b7f4e487b7100000000000000000000000000000000000000000000000000000000600052604160045260246000fd5b61046a82610421565b810181811067ffffffffffffffff8211171561048957610488610432565b5b80604052505050565b600061049c610403565b90506104a88282610461565b919050565b600067ffffffffffffffff8211156104c8576104c7610432565b5b6104d182610421565b9050602081019050919050565b82818337600083830152505050565b60006105006104fb846104ad565b610492565b90508281526020810184848401111561051c5761051b61041c565b5b6105278482856104de565b509392505050565b600082601f83011261054457610543610417565b5b81356105548482602086016104ed565b91505092915050565b600080600080608085870312156105775761057661040d565b5b600085013567ffffffffffffffff81111561059557610594610412565b5b6105a18782880161052f565b945050602085013567ffffffffffffffff8111156105c2576105c1610412565b5b6105ce8782880161052f565b935050604085013567ffffffffffffffff8111156105ef576105ee610412565b5b6105fb8782880161052f565b925050606085013567ffffffffffffffff81111561061c5761061b610412565b5b6106288782880161052f565b91505092959194509250565b61063d816103cf565b811461064857600080fd5b50565b60008135905061065a81610634565b92915050565b6000602082840312156106765761067561040d565b5b60006106848482850161064b565b91505092915050565b600081519050919050565b600082825260208201905092915050565b60005b838110156106c75780820151818401526020810190506106ac565b60008484015250505050565b60006106de8261068d565b6106e88185610698565b93506106f88185602086016106a9565b61070181610421565b840191505092915050565b600060a08201905061072160008301886103d9565b818103602083015261073381876106d3565b9050818103604083015261074781866106d3565b9050818103606083015261075b81856106d3565b9050818103608083015261076f81846106d3565b90509695505050505050565b7f4e487b7100000000000000000000000000000000000000000000000000000000600052601160045260246000fd5b60006107b5826103cf565b91507fffffffffffffffffffffffffffffffffffffffffffffffffffffffffffffffff82036107e7576107e661077b565b5b600182019050919050565b7f4e487b7100000000000000000000000000000000000000000000000000000000600052602260045260246000fd5b6000600282049050600182168061083957607f821691505b60208210810361084c5761084b6107f2565b5b50919050565b60008190508160005260206000209050919050565b60006020601f8301049050919050565b600082821b905092915050565b6000600883026108b47fffffffffffffffffffffffffffffffffffffffffffffffffffffffffffffffff82610877565b6108be8683610877565b95508019841693508086168417925050509392505050565b6000819050919050565b60006108fb6108f66108f1846103cf565b6108d6565b6103cf565b9050919050565b6000819050919050565b610915836108e0565b61092961092182610902565b848454610884565b825550505050565b600090565b61093e610931565b61094981848461090c565b505050565b5b8181101561096d57610962600082610936565b60018101905061094f565b5050565b601f8211156109b25761098381610852565b61098c84610867565b8101602085101561099b578190505b6109af6109a785610867565b83018261094e565b50505b505050565b600082821c905092915050565b60006109d5600019846008026109b7565b1980831691505092915050565b60006109ee83836109c4565b9150826002028217905092915050565b610a078261068d565b67ffffffffffffffff811115610a2057610a1f610432565b5b610a2a8254610821565b610a35828285610971565b600060209050601f831160018114610a685760008415610a56578287015190505b610a6085826109e2565b865550610ac8565b601f198416610a7686610852565b60005b82811015610a9e57848901518255600182019150602085019450602081019050610a79565b86831015610abb5784890151610ab7601f8916826109c4565b8355505b6001600288020188555050505b50505050505056fea2646970667358221220835c5c9620325900de7b190028924b186b11f9ad9b7a00ad11879e43bade56da64736f6c63430008130033",
  "immutableReferences": {},
  "source": "// SPDX-License-Identifier: MIT \r\npragma solidity ^0.8.10;\r\n\r\ncontract Contacts {\r\n  uint public count = 0; // state variable\r\n\r\n  struct Contact {\r\n    uint id;\r\n    string Manufacturename;\r\n    string Drugname;\r\n    string Composition;\r\n    string Targetedmedicalcondition;\r\n  }\r\n\r\n  constructor() public{\r\n    //createContact('Gilead Sciences', 'Remdesivir', 'Remdesivir 50%', 'COVID-19');\r\n  }\r\n\r\n  mapping(uint => Contact) public contacts;\r\n\r\n  function createContact(string memory _mname, string memory _dname, string memory _comp, string memory _target) \r\n  public {\r\n    count++;\r\n    contacts[count] = Contact(count, _mname, _dname, _comp, _target);\r\n  }\r\n}",
  "sourcePath": "C:\\Users\\Dhanush\\Desktop\\Drug Traceability Src\\BlockChain\\contracts\\Contacts.sol",
  "compiler": {
    "name": "solc",
    "version": "0.8.19+commit.7dd6d404.Emscripten.clang"
  },
  "schemaVersion": "3.4.13",
  "updatedAt": "2023-06-09T04:05:12.727Z",
  "networkType": "ethereum",
  "devdoc": {
    "kind": "dev",
    "methods": {},
    "version": 1
  },
  "userdoc": {
    "kind": "user",
    "methods": {},
    "version": 1
  }
}